


Parity launched with : 
`parity --chain kovan
--no-ancient-blocks 
--private-tx-enabled 
--author="0x004702bdcc3c7dbffd943136107e70b827028600" 
--engine-signer="0x004702bdcc3c7dbffd943136107e70b827028600" 
--private-signer="0x004702bdcc3c7dbffd943136107e70b827028600" 
--private-validators="0x004702bdcc3c7dbffd943136107e70b827028600" 
--private-account="0x004702bdcc3c7dbffd943136107e70b827028600" 
--private-sstore-url="http://52.161.156.79:8083" 
--private-passwords ~/prv-tx.pwd 
--jsonrpc-apis private,parity 
--password ~/prv-tx.pwd`

PrivateContractCode: 
```
contract Test1 { bytes32 public x; function setX(bytes32 _x) public { x = _x; } }
```
http://remix.ethereum.org/#optimize=false&version=soljson-v0.4.24+commit.e67f0147.js

Bytecode: `608060405234801561001057600080fd5b5060ec8061001f6000396000f3006080604052600436106049576000357c0100000000000000000000000000000000000000000000000000000000900463ffffffff1680630c55699c14604e578063bc64b76d14607e575b600080fd5b348015605957600080fd5b50606060ac565b60405180826000191660001916815260200191505060405180910390f35b348015608957600080fd5b5060aa600480360381019080803560001916906020019092919050505060b2565b005b60005481565b8060008160001916905550505600a165627a7a72305820719e4d0c785bbb23fc002abecf92daf0cf08d277b18c451321962043f2145c090029`

Private Contract address: `0xeCD324e91592B8614116775b608B630F1Dc2506A`

> web3.sha3("setX(bytes32)")

>"0xbc64b76d46f38211b46cd1a107337ffa1958d706b339b2a10aee4ea3d594b474"

parity_composeTransaction
```
curl --data '{"method":"parity_composeTransaction","params":[{"from":"0x004702bdcc3c7dbffd943136107e70b827028600","to":"0xeCD324e91592B8614116775b608B630F1Dc2506A","data":"0xbc64b76d2a00000000000000000000000000000000000000000000000000000000000000"}],"id":1,"jsonrpc":"2.0"}' -H "Content-Type: application/json" -X POST localhost:8545
```
Result
```
{"jsonrpc":"2.0","result":{"condition":null,"data":"0xbc64b76d2a00000000000000000000000000000000000000000000000000000000000000","from":"0x004702bdcc3c7dbffd943136107e70b827028600","gas":"0xe57e0","gasPrice":"0x77359400","nonce":"0x47","to":"0xecd324e91592b8614116775b608b630f1dc2506a","value":"0x0"},"id":1}
```
personal_signTransaction
```
curl --data '{"method":"personal_signTransaction","params":[{"data":"0xbc64b76d2a00000000000000000000000000000000000000000000000000000000000000","from":"0x004702bdcc3c7dbffd943136107e70b827028600","gas":"0xe57e0","gasPrice":"0x77359400","nonce":"0x47","to":"0xecd324e91592b8614116775b608b630f1dc2506a","value":"0x0"},"<redacted>"],"id":1,"jsonrpc":"2.0"}' -H "Content-Type: application/json" -X POST localhost:8545

```
Result
```
{"jsonrpc":"2.0","result":{"raw":"0xf888478477359400830e57e094ecd324e91592b8614116775b608b630f1dc2506a80a4bc64b76d2a0000000000000000000000000000000000000000000000000000000000000077a07e7ce6c63f0931f462c92c40b4fa963337c4f85409df5c40bc99256e1809ada8a02de3e119532277ccbab90d8678a6c8650d405c4ae6a5e8544079596001ddcae7","tx":{"blockHash":null,"blockNumber":null,"chainId":"0x2a","condition":null,"creates":null,"from":"0x004702bdcc3c7dbffd943136107e70b827028600","gas":"0xe57e0","gasPrice":"0x77359400","hash":"0xd92d5d468c3395598766db3807764fe45763f7727b005e1961177192486d9be8","input":"0xbc64b76d2a00000000000000000000000000000000000000000000000000000000000000","nonce":"0x47","publicKey":"0x9330e76571e0c1ffc6ad18e260a0d639129048ef70cd6fc83f545733b74a2345c64f5d3e6a4ebc9f1c6d4cbbfd526e54ab694dd96b4f68e4373ff16025432325","r":"0x7e7ce6c63f0931f462c92c40b4fa963337c4f85409df5c40bc99256e1809ada8","raw":"0xf888478477359400830e57e094ecd324e91592b8614116775b608b630f1dc2506a80a4bc64b76d2a0000000000000000000000000000000000000000000000000000000000000077a07e7ce6c63f0931f462c92c40b4fa963337c4f85409df5c40bc99256e1809ada8a02de3e119532277ccbab90d8678a6c8650d405c4ae6a5e8544079596001ddcae7","s":"0x2de3e119532277ccbab90d8678a6c8650d405c4ae6a5e8544079596001ddcae7","standardV":"0x0","to":"0xecd324e91592b8614116775b608b630f1dc2506a","transactionIndex":null,"v":"0x77","value":"0x0"}},"id":1}
```

private_sendTransaction
```
curl --data '{"method":"private_sendTransaction","params":["0xf888478477359400830e57e094ecd324e91592b8614116775b608b630f1dc2506a80a4bc64b76d2a0000000000000000000000000000000000000000000000000000000000000077a07e7ce6c63f0931f462c92c40b4fa963337c4f85409df5c40bc99256e1809ada8a02de3e119532277ccbab90d8678a6c8650d405c4ae6a5e8544079596001ddcae7"],"id":1,"jsonrpc":"2.0"}' -H "Content-Type: application/json" -X POST localhost:8545
```

## Error
{"jsonrpc":"2.0","error":{"code":-32024,"message":"Private transactions call failed.","data":"Error(Encrypt(\"Connection reset by peer (os error 104)\"), State { next_error: None, backtrace: None })"},"id":1}

